:100000000C942A000C9447000C9447000C94470071
:100010000C9447000C9447000C9447000C94470044
:100020000C9447000C9447000C9447000C94470034
:100030000C9447000C9447000C9447000C94470024
:100040000C9447000C9447000C9447000C94470014
:100050000C94470011241FBECFE5D8E0DEBFCDBF12
:1000600012E0A0E6B0E0E0EAF5E102C005900D92F2
:10007000AC3BB107D9F722E0ACEBB2E001C01D9276
:10008000A03CB207E1F70E9457060C94CE0A0C94EC
:10009000000082ED94E00895939827E030E090E02E
:1000A000AC01022E02C0559547950A94E2F740FF35
:1000B00002C0929A01C092989398939A2150310964
:1000C00078F708952CE080E090E0880F991F939ACC
:1000D000939830B331FB442740F950E0840F951FCB
:1000E000215099F7089583E397E00197F1F79498E9
:1000F00080E90E944C0083E397E00197F1F7939A1F
:1001000000000000000000009398000000000000C4
:1001100000000E9462009093BF028093BE0280EDB7
:100120000E944C00939A0000000000000000939889
:1001300000000000000000000E9462009093BD02D9
:100140008093BC02949A0895A898A99898BB8BBBF9
:10015000AF9AAF98A99A0895A89AA99898BB8BBB13
:10016000AF9AAF98A99A0895CF93DF93EB010E94BD
:10017000A400CE010E94AC00DF91CF910895EF92D0
:10018000FF920F931F93CF93DF938C01EB017901C3
:1001900060E070E0742F680F791F84E490E00E94A3
:1001A000B400BE0185E490E00E94B400B70186E48B
:1001B00090E00E94B400B8018EE490E00E94B40088
:1001C000BE018FE490E00E94B40082E290E00E94C1
:1001D000A400DF91CF911F910F91FF90EF900895B0
:1001E0008FEF8ABB87BB81BB84BB8CEF81BB82EA6C
:1001F0008FBD8AE18EBD8FEF97E497BD86BD8CEDF4
:1002000095E09BBD8ABD99BD88BD81B3806681BBE9
:10021000979A8FEF93E20197F1F700C0000097984B
:100220008FEF97E40197F1F700C00000979AA99A21
:10023000AE9AAF988FEF9FE80197F1F700C00000EA
:1002400061E070E080E090E00E94B40083E397E01A
:100250000197F1F764EA78EA83E090E00E94B40045
:1002600083E397E00197F1F760E070E08CE090E0C5
:100270000E94B40083E397E00197F1F76CE078E027
:100280008DE090E00E94B40083E397E00197F1F7DE
:1002900060E07BE28EE090E00E94B40083E397E0B0
:1002A0000197F1F760EB70E08EE190E00E94B400FE
:1002B00083E397E00197F1F76FE37BE281E090E061
:1002C0000E94B40083E397E00197F1F760E076E0E5
:1002D00082E090E00E94B40083E397E00197F1F799
:1002E00060E070E080E190E00E94B40083E397E07A
:1002F0000197F1F760E770E681E190E00E94B400B9
:1003000083E397E00197F1F760E070E085E090E02B
:100310000E94B40083E397E00197F1F760E070E09A
:1003200086E090E00E94B40083E397E00197F1F744
:100330006CE17FEE86E190E00E94B40083E397E0F9
:100340000197F1F763E070E087E190E00E94B4006C
:1003500083E397E00197F1F763E372E087E090E0D1
:100360000E94B40083E397E00197F1F760E070E04A
:100370008BE090E00E94B40083E397E00197F1F7EF
:1003800060E070E08FE090E00E94B40083E397E0CB
:100390000197F1F760E070E081E490E00E94B40022
:1003A00083E397E00197F1F760E070E082E490E08A
:1003B0000E94B40083E397E00197F1F760E070E0FA
:1003C00088E490E00E94B40083E397E00197F1F79E
:1003D0006FE371E089E490E00E94B40083E397E06A
:1003E0000197F1F760E070E08AE490E00E94B400C9
:1003F00083E397E00197F1F760E070E08BE490E031
:100400000E94B40083E397E00197F1F760E07FEE8C
:1004100084E490E00E94B40083E397E00197F1F751
:1004200060E070E085E490E00E94B40083E397E030
:100430000197F1F76FE371E086E490E00E94B40069
:1004400083E397E00197F1F767E077E080E390E0DE
:100450000E94B40083E397E00197F1F764E072E053
:1004600081E390E00E94B40083E397E00197F1F705
:1004700064E072E082E390E00E94B40083E397E0DE
:100480000197F1F762E075E083E390E00E94B40029
:1004900083E397E00197F1F767E075E084E390E08C
:1004A0000E94B40083E397E00197F1F764E072E003
:1004B00085E390E00E94B40083E397E00197F1F7B1
:1004C00064E072E086E390E00E94B40083E397E08A
:1004D0000197F1F762E075E087E390E00E94B400D5
:1004E00083E397E00197F1F762E073E08AE390E03D
:1004F0000E94B40083E397E00197F1F762E073E0B4
:100500008BE390E00E94B40083E397E00197F1F75A
:1005100060E070E083E290E00E94B40083E397E043
:100520000197F1F760E070E084E290E00E94B4008F
:1005300083E397E00197F1F760E070E08FE490E0EB
:100540000E94B40060E070E08EE490E00E94B4008D
:1005500082E290E00E94A4000895EF92FF920F9330
:100560001F93CF93DF938C012FE331E04FEE50E0E8
:1005700060E070E080E090E00E94BF006894EE24AC
:10058000E6F8FF24F39409C0C8010E94AC0021974B
:10059000D9F781E0E81AF10819F0C0EFD0E0F4CF04
:1005A000DF91CF911F910F91FF90EF900895CF931E
:1005B000DF93EB01BC018EE490E00E94B4006FE396
:1005C00071E06C1B7D0B8FE490E00E94B40082E22E
:1005D00090E00E94A400DF91CF910895CF93DF9324
:1005E000803F910560F4603421E0720740F4EA0135
:1005F000A9980E94D702CE010E94AC00A99ADF916F
:10060000CF9108952F923F924F925F926F927F9277
:100610008F929F92AF92BF92CF92DF92EF92FF9212
:100620000F931F93CF93DF937C01EB013A012901D4
:1006300018018901061B170B4A01881A990A112310
:100640003CF4119501951109AA24AA94BA2C03C06F
:10065000AA24A394B12C99203CF4919481949108FC
:10066000CC24CA94DC2C03C0CC24C394D12C880C99
:10067000991C000F111FA101BE01C7010E94EE02CB
:1006800008151905E4F4C401959587952801481AC1
:10069000590A6E147F0471F1552024F0CA0DDB1D38
:1006A00048185908EC0CFD1C400E511EA101BE015A
:1006B000C7010E94EE026E147F0471F71BC0C801CF
:1006C000959587953401681A790A4C165D0691F064
:1006D000772024F0EC0CFD1C601A710ACA0DDB1D9A
:1006E000680C791CA101BE01C7010E94EE024C16E4
:1006F0005D0671F7DF91CF911F910F91FF90EF9001
:10070000DF90CF90BF90AF909F908F907F906F9031
:100710005F904F903F902F900895EF92FF920F932C
:100720001F93CF93DF937A01022FA9980E94D702DB
:10073000009F80011124101611064CF4C0E0D0E097
:10074000C7010E94AC002196C017D107C9F7A99A2A
:10075000DF91CF911F910F91FF90EF9008952F920D
:100760003F925F926F927F928F929F92AF92BF92D1
:10077000CF92DF92EF92FF920F931F93CF93DF936D
:1007800000D000D000D0CDB7DEB75B01542E3A8345
:1007900029831C830B83411102C055245394852C5B
:1007A000912C64018816990608F46C01F12CC7019C
:1007B000880F991F880F991F8E0D9F1D9C01205C2B
:1007C0003F4F7901160135E0230E311CC401880F1B
:1007D000991F880F991F880F991F3C01E8E05E9EC2
:1007E00060187108112430C0F701808190E00D80FD
:1007F00002C0969587950A94E2F780FF08C0252DE0
:1008000049815A81B801C6010E948D0307C0252D78
:100810004B815C81B801C6010E948D03080D191D32
:100820002D813E812F5F3F4F3E832D832830310540
:10083000D9F6A60CB71C3FEFC31AD30A81E0E81A19
:10084000F1082C143D0421F085011E821D82CCCFBD
:1008500026960FB6F894DEBF0FBECDBFDF91CF91C5
:100860001F910F91FF90EF90DF90CF90BF90AF90CE
:100870009F908F907F906F905F903F902F90089502
:100880005F926F927F928F929F92AF92BF92CF9220
:10089000DF92EF92FF920F931F93CF93DF93EC01C0
:1008A0004B01542E590168013701F301E1903F01DA
:1008B00086019501452DB401CE010E94AF03269615
:1008C000F30180818052803680F3DF91CF911F91B8
:1008D0000F91FF90EF90DF90CF90BF90AF909F90DF
:1008E0008F907F906F905F900895EF92FF920F939B
:1008F0001F93CF93DF930FEF1FEF24E130E040EF22
:1009000050E064E170E080E090E00E940203CCE3FC
:10091000D0E00FEF1FEF24E130E0AE0160E070E0C7
:10092000CE010E940203EC96C03FD10591F7C4E6C8
:10093000D0E00FEF1FEF9E0140EF50E0BE0180E0DE
:1009400090E00E940203AC96C03481E0D80789F79A
:10095000CCE3D0E00FEF1FEF24E131E0AE0164E61D
:1009600070E0CE010E940203EC96C03FD10591F7E2
:10097000C0E3D0E00FEF1FEF20E431E0AE016CE107
:1009800071E0CE010E940203A896C83FD10591F7FD
:100990000F2EF0E6EF2EF0E0FF2EF02D00E010E03D
:1009A0002FEF3FEF42E065E070E088EC90E00E94BE
:1009B00040040F2EF8E6EF2EF0E0FF2EF02D2FEF83
:1009C0003FEF42E065E070E08CE890E00E94400478
:1009D0000F2EF0E7EF2EF0E0FF2EF02D2FEF3FEF80
:1009E00042E065E070E080E590E00E9440040F2E58
:1009F000F8E7EF2EF0E0FF2EF02D2FEF3FEF42E073
:100A000065E070E084E190E00E9440040F2EF0E881
:100A1000EF2EF0E0FF2EF02D2FEF3FEF43E06EE6DC
:100A200070E088EC90E00E9440040F2EF4E8EF2E76
:100A3000F0E0FF2EF02D2FEF3FEF43E06EE670E089
:100A40008CE890E00E9440040F2EF8E8EF2EF0E0D2
:100A5000FF2EF02D2FEF3FEF43E06EE670E080E5D4
:100A600090E00E9440040F2EFCE8EF2EF0E0FF2EF5
:100A7000F02D2FEF3FEF43E06EE670E084E190E071
:100A80000E9440040F2EF0E9EF2EF0E0FF2EF02D33
:100A90002FEF3FEF43E06AE970E088EC90E00E94BE
:100AA00040040F2EF4E9EF2EF0E0FF2EF02D2FEF93
:100AB0003FEF43E06AE970E08CE890E00E94400478
:100AC0000F2EF8E9EF2EF0E0FF2EF02D2FEF3FEF85
:100AD00043E06AE970E080E590E00E9440040F2E58
:100AE000FCE9EF2EF0E0FF2EF02D2FEF3FEF43E07B
:100AF0006AE970E084E190E00E9440040F2EF0EA81
:100B0000EF2EF0E0FF2EF02D2FEF3FEF43E066ECED
:100B100070E088EC90E00E9440040F2EF4EAEF2E83
:100B2000F0E0FF2EF02D2FEF3FEF43E066EC70E09A
:100B30008CE890E00E9440040F2EF8EAEF2EF0E0DF
:100B4000FF2EF02D2FEF3FEF43E066EC70E080E5E5
:100B500090E00E9440040F2EFCEAEF2EF0E0FF2E02
:100B6000F02D2FEF3FEF43E066EC70E084E190E082
:100B70000E9440040F2EF0EBEF2EF0E0FF2EF02D40
:100B80002FEF3FEF43E062EF70E088EC90E00E94CF
:100B900040040F2EF4EBEF2EF0E0FF2EF02D2FEFA0
:100BA0003FEF43E062EF70E08CE890E00E94400489
:100BB0000F2EFCEBEF2EF0E0FF2EF02D2FEF3FEF8E
:100BC00043E062EF70E080E590E00E9440040F2E69
:100BD000F0ECEF2EF0E0FF2EF02D2FEF3FEF43E093
:100BE00062EF70E084E190E00E9440040F2EF4EC8C
:100BF000EF2EF0E0FF2EF02D2FEF3FEF43E06EE100
:100C000071E08CED90E00E9440040F2EF8ECEF2E86
:100C1000F0E0FF2EF02D2FEF3FEF43E06EE171E0AB
:100C200084EB90E00E9440040F2EFCECEF2EF0E0ED
:100C3000FF2EF02D2FEF3FEF43E06EE171E086E9EC
:100C400090E00E9440040F2EF0EDEF2EF0E0FF2E1A
:100C5000F02D2FEF3FEF43E06EE171E084E690E08E
:100C60000E9440040F2EF4EDEF2EF0E0FF2EF02D49
:100C70002FEF3FEF43E06EE171E08CE390E00E94E4
:100C800040040F2EF8EDEF2EF0E0FF2EF02D2FEFA9
:100C90003FEF43E06EE171E084E190E00E944004A8
:100CA000DF91CF911F910F91FF90EF9008950E94D7
:100CB000F00080E090E00E94AD020E94750420E008
:100CC00030E040E050E060E080E00E944900CCED80
:100CD000D5E08099FECF0E9473004091BC025091F4
:100CE000BD024055510956954795569547955695DD
:100CF00047955093BD024093BC022091BE023091B3
:100D0000BF0220553109ABEABAEA0E94BF0A9695A4
:100D10008795969587959093BF028093BE02415028
:100D200051094C335105C0F401974497C0F50F2E7B
:100D3000F8E7EF2EF0E0FF2EF02D00E010E02FEFAF
:100D40003FEF43E062E370E082E390E00E94400402
:100D5000DBBDCABDD9BDC8BD8091BC029091BD02AA
:100D6000CC97CC97E0F48091BE029091BF0201979E
:100D70004497A8F40F2EF0E7EF2EF0E0FF2EF02DB1
:100D800000E010E02FEF3FEF43E062E370E082E32A
:100D900090E00E944004DBBDCABDD9BDC8BD8091B2
:100DA000BC029091BD0288579109CC97F8F48091CC
:100DB000BE029091BF028531910508F09AC3892B3C
:100DC000C9F10F2EF8E6EF2EF0E0FF2EF02D00E037
:100DD00010E02FEF3FEF43E062E370E082E390E04A
:100DE0000E944004DBBDCABDD9BDC8BD8091BC0214
:100DF0009091BD02845B9109CC97E0F48091BE0292
:100E00009091BF0201974497A8F40F2EF0E6EF2EC1
:100E1000F0E0FF2EF02D00E010E02FEF3FEF43E079
:100E200062E370E082E390E00E944004DBBDCABD53
:100E3000D9BDC8BD8091BC029091BD02843B910593
:100E4000E8F08091BE029091BF02845691098C9780
:100E5000D0F50F2EF0E8EF2EF0E0FF2EF02D00E0A1
:100E600010E02FEF3FEF43E062E370E082E390E0B9
:100E70000E944004DBBDCABDD9BDC8BD8091BC0283
:100E80009091BD0288579109CC97E8F48091BE02F9
:100E90009091BF02845691098C97A8F40F2EF4E824
:100EA000EF2EF0E0FF2EF02D00E010E02FEF3FEFEF
:100EB00043E062E370E082E390E00E944004DBBD27
:100EC000CABDD9BDC8BD8091BC029091BD02CC976E
:100ED000CC9708F58091BE029091BF0284369105AF
:100EE00008F440C08039910508F011C30F2EF8E8CE
:100EF000EF2EF0E0FF2EF02D00E010E02FEF3FEF9F
:100F000043E062E370E082E390E00E944004DBBDD6
:100F1000CABDD9BDC8BD2091BC023091BD022C33E1
:100F2000310500F58091BE029091BF028436910593
:100F3000C8F08039910508F0C7C20F2EFCE8EF2EEB
:100F4000F0E0FF2EF02D00E010E02FEF3FEF43E048
:100F500062E370E082E390E00E944004DBBDCABD22
:100F6000D9BDC8BD8091BC029091BD02843B910562
:100F7000F8F08091BE029091BF0280399105C0F0D7
:100F80008C3B9105A8F40F2EF0E9EF2EF0E0FF2E38
:100F9000F02D00E010E02FEF3FEF43E062E370E060
:100FA00082E390E00E944004DBBDCABDD9BDC8BD4C
:100FB0008091BC029091BD0288579109CC97E8F4CA
:100FC0008091BE029091BF02805991098C97A8F43C
:100FD0000F2EF4E9EF2EF0E0FF2EF02D00E010E0F0
:100FE0002FEF3FEF43E062E370E082E390E00E9486
:100FF0004004DBBDCABDD9BDC8BD8091BC02909183
:10100000BD02CC97CC9708F58091BE029091BF02AB
:101010008039910508F440C08C3B910508F084C2EA
:101020000F2EF8E9EF2EF0E0FF2EF02D00E010E09B
:101030002FEF3FEF43E062E370E082E390E00E9435
:101040004004DBBDCABDD9BDC8BD2091BC023091F2
:10105000BD022C33310500F58091BE029091BF0294
:1010600080399105C8F08C3B910508F032C20F2EF3
:10107000FCE9EF2EF0E0FF2EF02D00E010E02FEF66
:101080003FEF43E062E370E082E390E00E944004BF
:10109000DBBDCABDD9BDC8BD8091BC029091BD0267
:1010A000843B9105F8F08091BE029091BF028C3B89
:1010B0009105C0F0883E9105A8F40F2EF0EAEF2EBE
:1010C000F0E0FF2EF02D00E010E02FEF3FEF43E0C7
:1010D00062E370E082E390E00E944004DBBDCABDA1
:1010E000D9BDC8BD8091BC029091BD0288579109BD
:1010F000CC97E8F48091BE029091BF028C5B91097D
:101100008C97A8F40F2EF4EAEF2EF0E0FF2EF02DCE
:1011100000E010E02FEF3FEF43E062E370E082E396
:1011200090E00E944004DBBDCABDD9BDC8BD80911E
:10113000BC029091BD02CC97CC9708F58091BE027D
:101140009091BF028C3B910508F440C0883E910508
:1011500008F0F7C10F2EF8EAEF2EF0E0FF2EF02D89
:1011600000E010E02FEF3FEF43E062E370E082E346
:1011700090E00E944004DBBDCABDD9BDC8BD20912E
:10118000BC023091BD022C33310500F58091BE02C6
:101190009091BF028C3B9105C8F0883E910508F004
:1011A0009DC10F2EFCEAEF2EF0E0FF2EF02D00E0A7
:1011B00010E02FEF3FEF43E062E370E082E390E066
:1011C0000E944004DBBDCABDD9BDC8BD8091BC0230
:1011D0009091BD02843B9105F8F08091BE02909100
:1011E000BF02883E9105C0F084319140A8F40F2ED3
:1011F000F0EBEF2EF0E0FF2EF02D00E010E02FEFEF
:101200003FEF43E062E370E082E390E00E9440043D
:10121000DBBDCABDD9BDC8BD8091BC029091BD02E5
:1012200088579109CC97E8F48091BE029091BF0253
:10123000885E91098C97A8F40F2EF4EBEF2EF0E066
:10124000FF2EF02D00E010E02FEF3FEF43E062E3D0
:1012500070E082E390E00E944004DBBDCABDD9BDCE
:10126000C8BD8091BC029091BD02CC97CC9708F587
:101270008091BE029091BF02883E910508F441C062
:101280008431914008F06AC10F2EFCEBEF2EF0E0A4
:10129000FF2EF02D00E010E02FEF3FEF43E062E380
:1012A00070E082E390E00E944004DBBDCABDD9BD7E
:1012B000C8BD8091BC029091BD028C33910508F5A8
:1012C0002091BE023091BF02283E3105D0F024317A
:1012D00041E0340708F007C10F2EF0ECEF2EF0E0EC
:1012E000FF2EF02D00E010E02FEF3FEF43E062E330
:1012F00070E082E390E00E944004DBBDCABDD9BD2E
:10130000C8BD8091BC029091BD02885C910988970C
:1013100000F52091BE023091BF02243181E03807F0
:10132000C0F020343140A8F40F2EF4ECEF2EF0E0A2
:10133000FF2EF02D00E010E02FEF3FEF43E062E3DF
:1013400070E082E390E00E944004DBBDCABDD9BDDD
:10135000C8BD8091BC029091BD02805A91098897C6
:10136000E8F48091BE029091BF02845191408C9725
:10137000A8F40F2EF8ECEF2EF0E0FF2EF02D00E099
:1013800010E02FEF3FEF43E062E370E082E390E094
:101390000E944004DBBDCABDD9BDC8BD8091BC025E
:1013A0009091BD02885791098897E8F48091BE0218
:1013B0009091BF02845191408C97A8F40F2EFCECC1
:1013C000EF2EF0E0FF2EF02D00E010E02FEF3FEFCA
:1013D00043E062E370E082E390E00E944004DBBD02
:1013E000CABDD9BDC8BD8091BC029091BD028055D7
:1013F00091098897F0F48091BE029091BF028451C8
:1014000091408C9708F0B2C00F2EF0EDEF2EF0E077
:10141000FF2EF02D00E010E02FEF3FEF43E062E3FE
:1014200070E082E390E00E944004DBBDCABDD9BDFC
:10143000C8BD8091BC029091BD0288978897F0F456
:101440008091BE029091BF02845191408C9708F028
:1014500040CC0F2EF4EDEF2EF0E0FF2EF02D00E04B
:1014600010E02FEF3FEF43E062E370E082E390E0B3
:101470000E944004DBBDCABDD9BDC8BD8091BC027D
:101480009091BD02889708F024CC8091BE02909183
:10149000BF02845191408C9708F01BCC0F2EF8EDC1
:1014A000EF2EF0E0FF2EF02D00E010E02FEF3FEFE9
:1014B00043E062E370E082E390E00E944004DBBD21
:1014C000CABDD9BDC8BD05CC243B310508F058CDF7
:1014D0006FCD243B310508F0EDCD04CE243B310522
:1014E00008F082CE99CE885C9109889708F419CFCC
:1014F00030CF8091BC029091BD02843B910508F0F1
:10150000A0CCC4CC8091BE029091BF02DDCF2091CF
:10151000BC023091BD022C333105A0F323CD809164
:10152000BE029091BF02D5CF2091BC023091BD0286
:101530002C333105A0F3B0CD8091BE029091BF0253
:10154000CDCF2091BC023091BD022C333105A0F3E8
:101550003DCE2091BE023091BF02C5CF8091BC022A
:101560009091BD028C339105A0F3CBCE8091BC024B
:101570009091BD028897889708F4ABCB7FCFA29F4C
:10158000B001B39FC001A39F700D811D1124911D57
:10159000B29F700D811D1124911D0895F894FFCF05
:1015A0004E20492042200000542043204F200000BC
:1015B00043204520442000005820452048200000BA
:1015C0003720000038200000392000002F200000C4
:1015D0003420000035200000362000007820000074
:1015E0003120000032200000332000002B200000BA
:1015F0003020000052204C20432000003D200000FD
:101600002D20000041200000422000004320000067
:10161000442000004520000046200000000000009B
:101620000000005F00000007000700147F147F1413
:10163000242A7F2A12231308646236495522500057
:1016400005030000001C2241000041221C00140878
:101650003E081408083E080800503000000808083A
:101660000808006060000020100804023E5149454F
:101670003E00427F400042615149462141454B3185
:101680001814127F1027454545393C4A4949300115
:10169000710905033649494936064949291E00366C
:1016A00036000000563600000814224100141414BD
:1016B00014140041221408020151090632497941EB
:1016C0003E7E1111117E7F494949363E41414122FA
:1016D0007F4141221C7F494949417F090909013E57
:1016E0004149497A7F0808087F00417F4100204036
:1016F000413F017F081422417F404040407F020C5F
:10170000027F7F0408107F3E4141413E7F09090965
:10171000063E4151215E7F09192946464949493112
:1017200001017F01013F4040403F1F2040201F3FFB
:101730004038403F6314081463070870080761517C
:10174000494543007F414100020408102000414107
:101750007F000402010204404040404000010204B6
:101760000020545454787F4844443838444444203A
:10177000384444487F3854545418087E0901020CF8
:101780005252523E7F0804047800447D40002040BD
:10179000443D007F1028440000417F40007C041835
:1017A00004787C0804047838444444387C141414C5
:1017B00008081414187C7C08040408485454542065
:1017C000043F4440203C4040207C1C2040201C3CE6
:1017D0004030403C44281028440C5050503C446455
:1017E000544C44000836410000007F0000004136A0
:0C17F000080010080810087846414678F0
:00000001FF
