:100000000C942A000C9447000C9447000C94470071
:100010000C9447000C9447000C9447000C94470044
:100020000C9447000C9447000C9447000C94470034
:100030000C9447000C9447000C9447000C94470024
:100040000C9447000C9447000C9447000C94470014
:100050000C94470011241FBECFE5D8E0DEBFCDBF12
:1000600012E0A0E6B0E0EEE0FCE002C005900D92E8
:10007000AC3BB107D9F722E0ACEBB2E001C01D9276
:10008000AC3BB207E1F70E94FC050C9405060C940A
:100090000000A898A99898BB8BBBAF9AAF98A99A73
:1000A0000895A89AA99898BB8BBBAF9AAF98A99AC4
:1000B0000895CF93DF93EB010E944900CE010E9487
:1000C0005100DF91CF910895EF92FF920F931F930C
:1000D000CF93DF938C01EB01790160E070E0742F26
:1000E000680F791F84E490E00E945900BE0185E406
:1000F00090E00E945900B70186E490E00E94590008
:10010000B8018EE490E00E945900BE018FE490E0B7
:100110000E94590082E290E00E944900DF91CF9155
:100120001F910F91FF90EF9008958FEF8ABB87BBCF
:1001300081BB84BB8CEF81BB82EA8FBD8AE18EBD1F
:100140008FEF97E497BD86BD8CED95E09BBD8ABD92
:1001500099BD88BD81B3806681BB979A8FEF93E28A
:100160000197F1F700C0000097988FEF97E401978F
:10017000F1F700C00000979AA99AAE9AAF988FEF56
:100180009FE80197F1F700C0000061E070E080E0B7
:1001900090E00E94590083E397E00197F1F764EA49
:1001A00078EA83E090E00E94590083E397E00197AA
:1001B000F1F760E070E08CE090E00E94590083E38A
:1001C00097E00197F1F76CE078E08DE090E00E9415
:1001D000590083E397E00197F1F760E07BE28EE05E
:1001E00090E00E94590083E397E00197F1F760EBFC
:1001F00070E08EE190E00E94590083E397E0019760
:10020000F1F76FE37BE281E090E00E94590083E325
:1002100097E00197F1F760E076E082E090E00E94DD
:10022000590083E397E00197F1F760E070E080E127
:1002300090E00E94590083E397E00197F1F760E7AF
:1002400070E681E190E00E94590083E397E0019716
:10025000F1F760E070E085E090E00E94590083E3F0
:1002600097E00197F1F760E070E086E090E00E948F
:10027000590083E397E00197F1F76CE17FEE86E1A7
:1002800090E00E94590083E397E00197F1F763E063
:1002900070E087E190E00E94590083E397E00197C6
:1002A000F1F763E372E087E090E00E94590083E396
:1002B00097E00197F1F760E070E08BE090E00E943A
:1002C000590083E397E00197F1F760E070E08FE079
:1002D00090E00E94590083E397E00197F1F760E016
:1002E00070E081E490E00E94590083E397E0019779
:1002F000F1F760E070E082E490E00E94590083E34F
:1003000097E00197F1F760E070E088E490E00E94E8
:10031000590083E397E00197F1F76FE371E089E417
:1003200090E00E94590083E397E00197F1F760E0C5
:1003300070E08AE490E00E94590083E397E001971F
:10034000F1F760E070E08BE490E00E94590083E3F5
:1003500097E00197F1F760E07FEE84E490E00E947F
:10036000590083E397E00197F1F760E070E085E4DE
:1003700090E00E94590083E397E00197F1F76FE363
:1003800071E086E490E00E94590083E397E00197D2
:10039000F1F767E077E080E390E00E94590083E3A3
:1003A00097E00197F1F764E072E081E390E00E944A
:1003B000590083E397E00197F1F764E072E082E38C
:1003C00090E00E94590083E397E00197F1F762E023
:1003D00075E083E390E00E94590083E397E0019782
:1003E000F1F767E075E084E390E00E94590083E351
:1003F00097E00197F1F764E072E085E390E00E94F6
:10040000590083E397E00197F1F764E072E086E337
:1004100090E00E94590083E397E00197F1F762E0D2
:1004200075E087E390E00E94590083E397E001972D
:10043000F1F762E073E08AE390E00E94590083E301
:1004400097E00197F1F762E073E08BE390E00E94A0
:10045000590083E397E00197F1F760E070E083E2F1
:1004600090E00E94590083E397E00197F1F760E084
:1004700070E084E290E00E94590083E397E00197E6
:10048000F1F760E070E08FE490E00E94590060E0D6
:1004900070E08EE490E00E94590082E290E00E94B9
:1004A00049000895EF92FF920F931F93CF93DF932C
:1004B0008C012FE331E04FEE50E060E070E080E02F
:1004C00090E00E9464006894EE24E6F8FF24F39420
:1004D00009C0C8010E9451002197D9F781E0E81AAC
:1004E000F10819F0C0EFD0E0F4CFDF91CF911F9168
:1004F0000F91FF90EF900895CF93DF93EB01BC0134
:100500008EE490E00E9459006FE371E06C1B7D0B5C
:100510008FE490E00E94590082E290E00E9449003E
:10052000DF91CF910895CF93DF93803F910560F4E1
:10053000603421E0720740F4EA01A9980E947C022D
:10054000CE010E945100A99ADF91CF9108952F9278
:100550003F924F925F926F927F928F929F92AF9253
:10056000BF92CF92DF92EF92FF920F931F93CF93A0
:10057000DF937C01EB013A01290118018901061B77
:10058000170B4A01881A990A11233CF41195019519
:100590001109AA24AA94BA2C03C0AA24A394B12CAA
:1005A00099203CF4919481949108CC24CA94DC2C39
:1005B00003C0CC24C394D12C880C991C000F111FAC
:1005C000A101BE01C7010E94930208151905E4F4B8
:1005D000C401959587952801481A590A6E147F041D
:1005E00071F1552024F0CA0DDB1D48185908EC0C98
:1005F000FD1C400E511EA101BE01C7010E949302C5
:100600006E147F0471F71BC0C8019595879534015E
:10061000681A790A4C165D0691F0772024F0EC0CEC
:10062000FD1C601A710ACA0DDB1D680C791CA10142
:10063000BE01C7010E9493024C165D0671F7DF915F
:10064000CF911F910F91FF90EF90DF90CF90BF90CF
:10065000AF909F908F907F906F905F904F903F9062
:100660002F900895EF92FF920F931F93CF93DF93F4
:100670007A01022FA9980E947C02009F8001112418
:10068000101611064CF4C0E0D0E0C7010E945100E2
:100690002196C017D107C9F7A99ADF91CF911F9171
:1006A0000F91FF90EF9008952F923F925F926F927B
:1006B0007F928F929F92AF92BF92CF92DF92EF92F2
:1006C000FF920F931F93CF93DF9300D000D000D001
:1006D000CDB7DEB75B01542E3A8329831C830B838D
:1006E000411102C055245394852C912C6401881625
:1006F000990608F46C01F12CC701880F991F880F27
:10070000991F8E0D9F1D9C01205C3F4F79011601A2
:1007100035E0230E311CC401880F991F880F991FE3
:10072000880F991F3C01E8E05E9E60187108112453
:1007300030C0F701808190E00D8002C096958795CA
:100740000A94E2F780FF08C0252D49815A81B8013B
:10075000C6010E94320307C0252D4B815C81B80180
:10076000C6010E943203080D191D2D813E812F5FA5
:100770003F4F3E832D8328303105D9F6A60CB71C98
:100780003FEFC31AD30A81E0E81AF1082C143D04A4
:1007900021F085011E821D82CCCF26960FB6F894DB
:1007A000DEBF0FBECDBFDF91CF911F910F91FF90A4
:1007B000EF90DF90CF90BF90AF909F908F907F9001
:1007C0006F905F903F902F9008955F926F927F920D
:1007D0008F929F92AF92BF92CF92DF92EF92FF9251
:1007E0000F931F93CF93DF93EC014B01542E5901CC
:1007F00068013701F301E1903F0186019501452D24
:10080000B401CE010E9454032696F30180818052E8
:10081000803680F3DF91CF911F910F91FF90EF9081
:10082000DF90CF90BF90AF909F908F907F906F9010
:100830005F900895EF92FF920F931F93CF93DF93F2
:100840000FEF1FEF24E130E040EF50E064E170E093
:1008500080E090E00E94A702CCE3D0E00FEF1FEF12
:1008600024E130E0AE0160E070E0CE010E94A7021A
:10087000EC96C03FD10591F7C4E6D0E00FEF1FEF33
:100880009E0140EF50E0BE0180E090E00E94A70290
:10089000AC96C03481E0D80789F7CCE3D0E00FEF05
:1008A0001FEF24E131E0AE0164E670E0CE010E946A
:1008B000A702EC96C03FD10591F7C0E3D0E00FEF5F
:1008C0001FEF20E431E0AE016CE171E0CE010E9447
:1008D000A702A896C83FD10591F70F2EF0E6EF2E9C
:1008E000F0E0FF2EF02D00E010E02FEF3FEF42E0B0
:1008F00065E070E088EC90E00E94E5030F2EF8E6DA
:10090000EF2EF0E0FF2EF02D2FEF3FEF42E065E0FD
:1009100070E08CE890E00E94E5030F2EF0E7EF2EE8
:10092000F0E0FF2EF02D2FEF3FEF42E065E070E0AA
:1009300080E590E00E94E5030F2EF8E7EF2EF0E04F
:10094000FF2EF02D2FEF3FEF42E065E070E084E1F5
:1009500090E00E94E5030F2EF0E8EF2EF0E0FF2E6E
:10096000F02D2FEF3FEF43E06EE670E088EC90E073
:100970000E94E5030F2EF4E8EF2EF0E0FF2EF02D9D
:100980002FEF3FEF43E06EE670E08CE890E00E94CE
:10099000E5030F2EF8E8EF2EF0E0FF2EF02D2FEFFD
:1009A0003FEF43E06EE670E080E590E00E94E503F3
:1009B0000F2EFCE8EF2EF0E0FF2EF02D2FEF3FEF93
:1009C00043E06EE670E084E190E00E94E5030F2EC4
:1009D000F0E9EF2EF0E0FF2EF02D2FEF3FEF43E098
:1009E0006AE970E088EC90E00E94E5030F2EF4E9DC
:1009F000EF2EF0E0FF2EF02D2FEF3FEF43E06AE9FE
:100A000070E08CE890E00E94E5030F2EF8E9EF2EED
:100A1000F0E0FF2EF02D2FEF3FEF43E06AE970E0AA
:100A200080E590E00E94E5030F2EFCE9EF2EF0E058
:100A3000FF2EF02D2FEF3FEF43E06AE970E084E1F5
:100A400090E00E94E5030F2EF0EAEF2EF0E0FF2E7B
:100A5000F02D2FEF3FEF43E066EC70E088EC90E084
:100A60000E94E5030F2EF4EAEF2EF0E0FF2EF02DAA
:100A70002FEF3FEF43E066EC70E08CE890E00E94DF
:100A8000E5030F2EF8EAEF2EF0E0FF2EF02D2FEF0A
:100A90003FEF43E066EC70E080E590E00E94E50304
:100AA0000F2EFCEAEF2EF0E0FF2EF02D2FEF3FEFA0
:100AB00043E066EC70E084E190E00E94E5030F2ED5
:100AC000F0EBEF2EF0E0FF2EF02D2FEF3FEF43E0A5
:100AD00062EF70E088EC90E00E94E5030F2EF4EBEB
:100AE000EF2EF0E0FF2EF02D2FEF3FEF43E062EF0F
:100AF00070E08CE890E00E94E5030F2EFCEBEF2EF7
:100B0000F0E0FF2EF02D2FEF3FEF43E062EF70E0BB
:100B100080E590E00E94E5030F2EF0ECEF2EF0E070
:100B2000FF2EF02D2FEF3FEF43E062EF70E084E106
:100B300090E00E94E5030F2EF4ECEF2EF0E0FF2E84
:100B4000F02D2FEF3FEF43E06EE171E08CED90E090
:100B50000E94E5030F2EF8ECEF2EF0E0FF2EF02DB3
:100B60002FEF3FEF43E06EE171E084EB90E00E94F5
:100B7000E5030F2EFCECEF2EF0E0FF2EF02D2FEF13
:100B80003FEF43E06EE171E086E990E00E94E5030B
:100B90000F2EF0EDEF2EF0E0FF2EF02D2FEF3FEFB8
:100BA00043E06EE171E084E690E00E94E5030F2EE1
:100BB000F4EDEF2EF0E0FF2EF02D2FEF3FEF43E0AE
:100BC0006EE171E08CE390E00E94E5030F2EF8EDFA
:100BD000EF2EF0E0FF2EF02D2FEF3FEF43E06EE120
:100BE00071E084E190E00E94E503DF91CF911F91D5
:100BF0000F91FF90EF9008950E94950080E090E0A3
:0E0C00000E9452020E941A04FFCFF894FFCF08
:100C0E004E20492042200000542043204F20000057
:100C1E004320452044200000582045204820000055
:100C2E003720000038200000392000002F2000005F
:100C3E00342000003520000036200000782000000F
:100C4E003120000032200000332000002B20000055
:100C5E003020000052204C20432000003D20000098
:100C6E002D20000041200000422000004320000003
:100C7E004420000045200000462000000000000037
:100C8E000000005F00000007000700147F147F14AF
:100C9E00242A7F2A122313086462364955225000F3
:100CAE0005030000001C2241000041221C00140814
:100CBE003E081408083E08080050300000080808D6
:100CCE000808006060000020100804023E514945EB
:100CDE003E00427F400042615149462141454B3121
:100CEE001814127F1027454545393C4A49493001B1
:100CFE00710905033649494936064949291E003608
:100D0E003600000056360000081422410014141458
:100D1E001414004122140802015109063249794186
:100D2E003E7E1111117E7F494949363E4141412295
:100D3E007F4141221C7F494949417F090909013EF2
:100D4E004149497A7F0808087F00417F41002040D1
:100D5E00413F017F081422417F404040407F020CFA
:100D6E00027F7F0408107F3E4141413E7F09090901
:100D7E00063E4151215E7F091929464649494931AE
:100D8E0001017F01013F4040403F1F2040201F3F97
:100D9E004038403F63140814630708700807615118
:100DAE00494543007F4141000204081020004141A3
:100DBE007F00040201020440404040400001020452
:100DCE000020545454787F484444383844444420D6
:100DDE00384444487F3854545418087E0901020C94
:100DEE005252523E7F0804047800447D4000204059
:100DFE00443D007F1028440000417F40007C0418D1
:100E0E0004787C0804047838444444387C14141460
:100E1E0008081414187C7C08040408485454542000
:100E2E00043F4440203C4040207C1C2040201C3C81
:100E3E004030403C44281028440C5050503C4464F0
:100E4E00544C44000836410000007F00000041363B
:0C0E5E000800100808100878464146788B
:00000001FF
