:100000000C942A000C9447000C9447000C94470071
:100010000C9447000C9447000C9447000C94470044
:100020000C9447000C9447000C9447000C94470034
:100030000C9447000C9447000C9447000C94470024
:100040000C9447000C9447000C9447000C94470014
:100050000C94470011241FBECFE5D8E0DEBFCDBF12
:1000600012E0A0E6B0E0ECE3F6E102C005900D92EC
:10007000A83BB107D9F722E0A8EBB2E001C01D927E
:10008000AE3BB207E1F70E94BE080C941C0B0C9427
:1000900000009C0102C0359527956A95E2F781E042
:1000A00020FF80E008951F93CF93DF93182F82B332
:1000B0008D7F82BBC7E0D0E015C0BE01812F90E0EC
:1000C0000E944900882321F082B3806482BB03C070
:1000D00082B38F7B82BB82B38D7F82BB82B382600F
:1000E00082BB2197DD234CF7DF91CF911F910895BB
:1000F0001F93CF93DF9380E090E010E014C0EC01F9
:10010000CC0FDD1F82B3826082BB82B38D7F82BB46
:1001100080B363E070E090E00E9449009E01280FE8
:10012000311DC9011F5F1C3050F3DF91CF911F912A
:10013000089583E397E00197F1F782B38B7F82BB49
:1001400080E90E94530083E397E00197F1F782B3BF
:10015000826082BB000000000000000082B38D7F3F
:1001600082BB00000000000000000E947800909315
:10017000BD028093BC0280ED0E94530082B3826076
:1001800082BB000000000000000082B38D7F82BBB4
:1001900000000000000000000E9478009093BB0265
:1001A0008093BA0282B3846082BB089525B32E7F08
:1001B00025BB25B32F7725BB98BB8BBB85B382604E
:1001C00085BB85B38D7F85BB85B3806885BB08956E
:1001D00025B3216025BB25B32F7725BB98BB8BBBEF
:1001E00085B3826085BB85B38D7F85BB85B3806811
:1001F00085BB0895CF93DF93EB010E94D600CE011B
:100200000E94E800DF91CF910895EF92FF920F9343
:100210001F93CF93DF938C01EB01790160E070E0D5
:10022000742F680F791F84E490E00E94FA00BE01E9
:1002300085E490E00E94FA00B70186E490E00E9415
:10024000FA00B8018EE490E00E94FA00BE018FE44B
:1002500090E00E94FA0082E290E00E94D600DF91D6
:10026000CF911F910F91FF90EF900895EF92FF9221
:100270000F931F93CF93DF938C012FE331E04FEE69
:1002800050E060E070E080E090E00E940501E12C29
:10029000F12C0DC0C8010E94E800219602C0C0E008
:1002A000D0E0C03FD105B4F38FEFE81AF80A80E43C
:1002B000E81681E0F8069CF3DF91CF911F910F9132
:1002C000FF90EF900895CF93DF93CFE3D1E0C61B6B
:1002D000D70BBC018EE490E00E94FA00BE018FE4CF
:1002E00090E00E94FA0082E290E00E94D600DF9146
:1002F000CF910895CF93DF93803F9105A4F46034AC
:1003000021E0720784F4992374F0772364F0EA0102
:1003100025B32F7725BB0E946301CE010E94E80020
:1003200085B3806885BBDF91CF9108952F923F926E
:100330004F925F926F927F928F929F92AF92BF92F5
:10034000CF92DF92EF92FF920F931F93CF93DF93A1
:10035000EC017B013A01290118018901061B170BE9
:100360004A01881A990A11233CF411950195110943
:10037000AA24AA94BA2C03C0AA24A394B12C99202D
:100380003CF4919481949108CC24CA94DC2C03C051
:10039000CC24C394D12C880C991C000F111FA101EF
:1003A000B701CE010E947A0108151905D4F4C401E1
:1003B000959587952801481A590A0FC0552024F0B1
:1003C000EA0CFB1C48185908CC0DDD1D400E511ECF
:1003D000A101B701CE010E947A01C615D70571F7B8
:1003E00019C0C801959587953401681A790A0FC01C
:1003F000772024F0CC0DDD1D601A710AEA0CFB1C7D
:10040000680C791CA101B701CE010E947A01E414A5
:10041000F50471F7DF91CF911F910F91FF90EF904D
:10042000DF90CF90BF90AF909F908F907F906F9014
:100430005F904F903F902F900895EF92FF921F93FF
:10044000CF93DF937A01122F25B32F7725BB0E941C
:100450006301C0E0D0E004C0C7010E94E80021961B
:10046000119FC0011124C817D907B4F385B3806860
:1004700085BBDF91CF911F91FF90EF9008954F9230
:100480005F926F928F929F92AF92BF92CF92DF92C4
:10049000EF92FF920F931F93CF93DF936C01EB01C9
:1004A000F42E59012801411102C0FF24F3948F2C2E
:1004B000912CC814D90408F464016894662462F885
:1004C0003CC08E2D90E08097FC01EE0FFF1FEE0FD9
:1004D000FF1FE80FF91FEE57FF4FE60DF11D67FCF8
:1004E000FA95808190E0012E02C0969587950A9436
:1004F000E2F780FF07C02F2DA501BE01C6010E94B3
:100500001D0206C02F2DA201BE01C6010E941D02C0
:10051000C80DD91D1F5F01C010E0183090F28F2D5B
:1005200090E0880F991F880F991F880F991FC81B8B
:10053000D90B8FEFC81AD80A6A9466206CF7DF913E
:10054000CF911F910F91FF90EF90DF90CF90BF90D0
:10055000AF909F908F906F905F904F9008953F92D3
:100560004F925F926F927F928F929F92AF92BF92C3
:10057000CF92DF92EF92FF920F931F93CF93DF936F
:100580006C014B01342E590128013701C7010E942B
:100590000C0BC0E0D0E01AC08F3511F4219616C0C4
:1005A0002196E82E82019501432DB401C6010E94D7
:1005B0003F026894EE24E5F89501432DB401C6018D
:1005C00006960E943F028CE0C80ED11CF301EC0F8E
:1005D000FD1F808190EE980F9036F0F2DF91CF9161
:1005E0001F910F91FF90EF90DF90CF90BF90AF9051
:1005F0009F908F907F906F905F904F903F90089565
:10060000EF92FF920F931F93CF93DF930FEF1FEFA4
:1006100028E230E040EF50E068E270E080E090E0F7
:100620000E949601CCE3D0E00BC00FEF1FEF28E251
:1006300030E0AE0160E070E0CE010E949601EC96E1
:10064000C03FD10594F3C4E6D0E00BC00FEF1FEF1D
:100650009E0140EF50E0BE0180E090E00E949601D4
:10066000AC96C03481E0D8078CF3CCE3D0E00BC06B
:100670000FEF1FEF24E131E0AE0164E670E0CE0140
:100680000E949601EC96C03FD10594F3C0E3D0E000
:100690000BC00FEF1FEF20E431E0AE016CE171E021
:1006A000CE010E949601A896C03FD10594F30F2E6B
:1006B000F2E6EF2EF2E0FF2EF02D00E010E02FEF3B
:1006C0003FEF43E050E06EE171E08CED90E00E947E
:1006D000AF020F2EF4E6EF2EF2E0FF2EF02D2FEFFB
:1006E0003FEF43E050E06EE171E084EB90E00E9468
:1006F000AF020F2EF6E7EF2EF2E0FF2EF02D2FEFD8
:100700003FEF43E050E06EE171E08CE890E00E9442
:10071000AF020F2EF6E6EF2EF2E0FF2EF02D2FEFB8
:100720003FEF43E050E06EE171E084E690E00E942C
:10073000AF020F2EF8E6EF2EF2E0FF2EF02D2FEF96
:100740003FEF43E050E06EE171E08CE390E00E9407
:10075000AF020F2EFAE6EF2EF2E0FF2EF02D2FEF74
:100760003FEF43E050E06EE171E084E190E00E94F1
:10077000AF020F2EFCE6EF2EF2E0FF2EF02D2FEF52
:100780003FEF42E050E06CE070E083EC90E00E94CC
:10079000AF020F2EF0E7EF2EF2E0FF2EF02D2FEF3D
:1007A0003FEF42E050E06CE070E087E890E00E94AC
:1007B000AF020F2EF4E7EF2EF2E0FF2EF02D2FEF19
:1007C0003FEF42E050E06CE070E08BE490E00E948C
:1007D000AF020F2EF8E7EF2EF2E0FF2EF02D2FEFF5
:1007E0003FEF42E050E06CE070E08FE090E00E946C
:1007F000AF020F2EFCE7EF2EF2E0FF2EF02D2FEFD1
:100800003FEF43E050E06EE670E088EC90E00E943D
:10081000AF020F2EFEE7EF2EF2E0FF2EF02D2FEFAE
:100820003FEF43E050E06EE670E08CE890E00E941D
:10083000AF020F2EF0E8EF2EF2E0FF2EF02D2FEF9B
:100840003FEF43E050E06EE670E080E590E00E940C
:10085000AF020F2EF2E8EF2EF2E0FF2EF02D2FEF79
:100860003FEF43E050E06EE670E084E190E00E94EC
:10087000AF020F2EF4E8EF2EF2E0FF2EF02D2FEF57
:100880003FEF43E050E06AE970E088EC90E00E94BE
:10089000AF020F2EF6E8EF2EF2E0FF2EF02D2FEF35
:1008A0003FEF43E050E06AE970E08CE890E00E949E
:1008B000AF020F2EF8E8EF2EF2E0FF2EF02D2FEF13
:1008C0003FEF43E050E06AE970E080E590E00E948D
:1008D000AF020F2EFAE8EF2EF2E0FF2EF02D2FEFF1
:1008E0003FEF43E050E06AE970E084E190E00E946D
:1008F000AF020F2EFCE8EF2EF2E0FF2EF02D2FEFCF
:100900003FEF43E050E066EC70E088EC90E00E943E
:10091000AF020F2EFEE8EF2EF2E0FF2EF02D2FEFAC
:100920003FEF43E050E066EC70E08CE890E00E941E
:10093000AF020F2EF0E9EF2EF2E0FF2EF02D2FEF99
:100940003FEF43E050E066EC70E080E590E00E940D
:10095000AF020F2EF2E9EF2EF2E0FF2EF02D2FEF77
:100960003FEF43E050E066EC70E084E190E00E94ED
:10097000AF020F2EF4E9EF2EF2E0FF2EF02D2FEF55
:100980003FEF43E050E062EF70E088EC90E00E94BF
:10099000AF020F2EF6E9EF2EF2E0FF2EF02D2FEF33
:1009A0003FEF43E050E062EF70E08CE890E00E949F
:1009B000AF020F2EFAE9EF2EF2E0FF2EF02D2FEF0F
:1009C0003FEF43E050E062EF70E080E590E00E948E
:1009D000AF020F2EFCE9EF2EF2E0FF2EF02D2FEFED
:1009E0003FEF43E050E062EF70E084E190E00E946E
:1009F000AF02DF91CF911F910F91FF90EF9008957B
:100A00008FEF8ABB87BB81BB84BB86EF81BB82B380
:100A1000806882BB8FEF93E20197F1F700C000007E
:100A200082B38F7782BB8FEF97E40197F1F700C015
:100A3000000082B3806882BB85B3806885BB85B3C4
:100A4000806485BB85B38D7F85BB8FEF9FE8019761
:100A5000F1F700C0000061E070E080E090E00E94EB
:100A6000FA0083E397E00197F1F764EA78EA83E01C
:100A700090E00E94FA0083E397E00197F1F760E0CD
:100A800070E08CE090E00E94FA0083E397E0019729
:100A9000F1F76CE078E08DE090E00E94FA0083E3EB
:100AA00097E00197F1F760E07BE28EE090E00E9432
:100AB000FA0083E397E00197F1F760EB70E08EE1D5
:100AC00090E00E94FA0083E397E00197F1F76FE36B
:100AD0007BE281E090E00E94FA0083E397E00197D7
:100AE000F1F760E076E082E090E00E94FA0083E3B4
:100AF00097E00197F1F760E070E080E190E00E94FC
:100B0000FA0083E397E00197F1F760E770E681E18F
:100B100090E00E94FA0083E397E00197F1F760E02C
:100B200070E085E090E00E94FA0083E397E001978F
:100B3000F1F760E070E086E090E00E94FA0083E365
:100B400097E00197F1F76CE17FEE86E190E00E947B
:100B5000FA0083E397E00197F1F763E070E087E143
:100B600090E00E94FA0083E397E00197F1F763E3D6
:100B700072E087E090E00E94FA0083E397E001973B
:100B8000F1F760E070E08BE090E00E94FA0083E310
:100B900097E00197F1F760E070E08FE090E00E944D
:100BA000FA0083E397E00197F1F760E070E081E4F9
:100BB00090E00E94FA0083E397E00197F1F760E08C
:100BC00070E082E490E00E94FA0083E397E00197EE
:100BD000F1F760E070E088E490E00E94FA0083E3BF
:100BE00097E00197F1F76FE371E089E490E00E94EC
:100BF000FA0083E397E00197F1F760E070E08AE4A0
:100C000090E00E94FA0083E397E00197F1F760E03B
:100C100070E08BE490E00E94FA0083E397E0019794
:100C2000F1F760E07FEE84E490E00E94FA0083E355
:100C300097E00197F1F760E070E085E490E00E94B2
:100C4000FA0083E397E00197F1F76FE371E086E440
:100C500090E00E94FA0083E397E00197F1F767E0E4
:100C600077E080E390E00E94FA0083E397E0019749
:100C7000F1F764E072E081E390E00E94FA0083E320
:100C800097E00197F1F764E072E082E390E00E9460
:100C9000FA0083E397E00197F1F762E075E083E300
:100CA00090E00E94FA0083E397E00197F1F767E094
:100CB00075E084E390E00E94FA0083E397E00197F7
:100CC000F1F764E072E085E390E00E94FA0083E3CC
:100CD00097E00197F1F764E072E086E390E00E940C
:100CE000FA0083E397E00197F1F762E075E087E3AC
:100CF00090E00E94FA0083E397E00197F1F762E049
:100D000073E08AE390E00E94FA0083E397E00197A2
:100D1000F1F762E073E08BE390E00E94FA0083E376
:100D200097E00197F1F760E070E083E290E00E94C5
:100D3000FA0083E397E00197F1F760E070E084E266
:100D400090E00E94FA0083E397E00197F1F760E0FA
:100D500070E08FE490E00E94FA0060E070E08EE4C2
:100D600090E00E94FA0082E290E00E94D60080E0CB
:100D700090E00E9436010E94000308958A30910598
:100D800014F4805D08958031910514F4895C089510
:100D900080E008959FEB980F963018F490E0C79785
:100DA000089590E0C09708958F929F92AF92BF925E
:100DB000CF92DF92EF92FF920F931F93CF93DF9327
:100DC0007C014B01C1E0D0E0FB0180818D3211F04C
:100DD000C0E0D0E05E01CC24DD24CC1ADD0A20E0A6
:100DE00030E00DC02E9D80012F9D100D3E9D100DF9
:100DF00011240E94CA069801280F391F2196F40178
:100E0000EC0FFD1F80818F3569F7C9018A199B0995
:100E10008C259D25DF91CF911F910F91FF90EF9031
:100E2000DF90CF90BF90AF909F908F9008958F925A
:100E30009F92AF92BF92CF92DF92EF92FF920F9369
:100E40001F93CF93DF937C018B016A01992324F4D4
:100E5000882799278E199F09A12CB12C01C05E010A
:100E6000B8010E94D50A862E972EE50121960E9490
:100E7000BE06F601EA0DFB1D8083882D992D009793
:100E800071F7FF2034F4CC0DDD1D8DE28883E50180
:100E90002296CC0DDD1D1882C6010E940C0B8FE539
:100EA0008883DF91CF911F910F91FF90EF90DF909A
:100EB000CF90BF90AF909F908F9008954B3221F4C8
:100EC0009C01260F371F18C04D3221F49C01261BB0
:100ED000370B12C04F3221F40E94D50A9B010CC07F
:100EE000483741F4869F9001879F300D969F300DC3
:100EF000112402C020E030E0C901089540970CF0B1
:100F000017C1603171050CF46CC08091BA029091E8
:100F1000BB029C01285C31092832310560F4209124
:100F2000BC023091BD02243141E0340720F020346E
:100F3000314008F4FFC09C01205A310928323105A4
:100F400060F42091BC023091BD02243141E03407AD
:100F500020F02034314008F4EFC09C0128573109BB
:100F60002832310560F42091BC023091BD02243159
:100F700041E0340720F02034314008F4DFC09C0108
:100F8000205531092832310560F42091BC0230919E
:100F9000BD02243141E0340720F02034314008F410
:100FA000CFC09C01285231092832310560F42091CC
:100FB000BC023091BD02243141E0340720F02034DE
:100FC000314008F4BFC0889760F48091BC029091D2
:100FD000BD02843121E0920720F08034914008F472
:100FE000B3C06A3071051CF18091BA029091BB02C6
:100FF0009C01285731092C33310558F42091BC024B
:101000003091BD022436310520F02039310508F435
:101010009DC0CC97CC9758F48091BC029091BD02B2
:101020008436910520F08039910508F491C068302C
:1010300071050CF45DC08091BA029091BB029C01D5
:10104000285731092C33310558F44091BC02509196
:10105000BD024C3B510520F0483E510508F47AC0D2
:10106000AC014C5351094C33510558F46091BC020A
:101070007091BD026C3B710520F0683E710508F46B
:101080006BC0843B910558F06091BC027091BD0229
:101090006039710520F06C3B710508F45FC02C339A
:1010A000310558F42091BC023091BD022039310540
:1010B00020F02C3B310508F453C04C33510558F453
:1010C0002091BC023091BD022039310520F02C3B2B
:1010D000310508F447C0843B910550F08091BC0273
:1010E0009091BD028436910518F080399105E0F1A8
:1010F0008091BA029091BB02843B910550F02091FF
:10110000BC023091BD02283E310518F02431314037
:1011100068F1843B910560F18091BC029091BD0221
:101120008C3B910538F1883E910530F180E00895BF
:1011300080E0089581E4089582E4089583E40895A9
:1011400084E4089585E4089586E4089588E3089585
:1011500089E3089582E3089583E3089584E308957D
:1011600085E3089586E3089587E3089580E308956D
:1011700080E0089580E0089581E30895CF93DF93A0
:10118000CDB7DEB760970FB6F894DEBF0FBECDBF08
:101190000E940005612C712C812C912C0F2EFFE5F3
:1011A0003F2EF02D412C512CC12CD12C0F2EFAE0CA
:1011B000AF2EB12CF02D80B360E070E090E00E9483
:1011C00049008111F8CF0E9499008091BA02909154
:1011D000BB0280559109969587959695879596952A
:1011E00087959093BB028093BA022091BC02309104
:1011F000BD0220553109ABEABAEA0E94E90A969588
:101200008795969587959093BD028093BC022FEFAA
:101210004FE38BE0215040408040E1F700C00000E8
:101220008091BA029091BB020197CC97C0F4809153
:10123000BC029091BD028932910588F4892B79F026
:1012400061E770E0C5010E94D40641E750E060E12B
:1012500070E00E9417076894AA24A4F8B12C80912A
:10126000BA029091BB02CC97CC97C8F48091BC0293
:101270009091BD028932910590F4892B81F061E74C
:1012800070E0C5010E94D40641E750E06AE070E0DA
:101290000E9417070F2EFAE0AF2EB12CF02D80918F
:1012A000BA029091BB0288579109CC97C0F4809103
:1012B000BC029091BD028932910588F4892B79F0A6
:1012C00061E770E0C5010E94D40641E750E068E0A4
:1012D00070E00E9417076894AA24A3F8B12C8091AB
:1012E000BA029091BB02845B9109CC97C0F48091C3
:1012F000BC029091BD028932910588F4892B79F066
:1013000061E770E0C5010E94D40641E750E062E069
:1013100070E00E9417076894AA24A1F8B12CB501C7
:10132000C6010E947E078823A9F06114710459F058
:1013300098E0EEE9F2E0A1E7B0E001900D929A9515
:10134000E1F7612C712CF601EF58FF4F8083C60145
:1013500001966C018091BA029091BB028C33910589
:1013600008F07AC02091BC023091BD0224363105CC
:1013700008F472C0243141E0340708F06DC08C33AA
:10138000910530F42436310518F020393105E0F0AC
:101390008C33910530F42039310518F02C3B3105A0
:1013A000A8F08C33910530F42C3B310518F0283E21
:1013B000310570F0CC9770F4283E310568F0243187
:1013C000314060F0132D0BC01FE209C018E707C0C1
:1013D0001BE205C0132D03C0132D01C01DE24114F3
:1013E000510421F19FE5391201C0312E61E770E00F
:1013F000C5010E94D406432DBC018091B802909192
:10140000B9020E945E079093B9028093B80241E747
:1014100050E0B5010E941707312E66246394712CA9
:1014200088248394912CC12CD12C42C061E770E0B8
:10143000C5010E94D4069093B9028093B802312E60
:1014400066246394712C88248394912C44244394BF
:10145000512CC12CD12C2CC0CC97CC9748F5809125
:10146000BC029091BD02883E910510F184319140FB
:10147000F8F461E770E0C5010E94D406432DBC0179
:101480008091B8029091B9020E945E079093B902D0
:101490008093B80241E750E0B5010E941707882405
:1014A0008394912C0F2EFFE53F2EF02DC12CD12CD3
:1014B0008091BA029091BB0288579109CC9798F518
:1014C0008091BC029091BD02883E910560F184310B
:1014D000914048F50F2EF6EAEF2EF2E0FF2EF02DA8
:1014E00000E010E02FEF3FEF43E06CE370E084E1B9
:1014F00090E00E94AF0288E0EEE9F2E0A1E7B0E000
:1015000001900D928A95E1F71092B9021092B802FB
:10151000812C912C0F2EFFE53F2EF02D412C512CCC
:10152000C12CD12C48CE8114910491F40F2EF6EAEF
:10153000EF2EF2E0FF2EF02D00E010E02FEF3FEF56
:1015400043E06CE370E084E190E00E94AF0202C0EF
:10155000812C912C20E018C0822F90E0FC01EF58E4
:10156000FF4F30813F3541F4E1E0F0E0EC0FFD1F2B
:10157000E80FF91F10820AC0E1E0F0E0EC0FFD1F58
:10158000E80FF91F30832F5F203130F3CE01019631
:101590007C0100E010E02FEF3FEF43E06CE370E0F0
:1015A00084E190E00E94AF0206CE97FB072E16F46E
:1015B000009407D077FD09D00E94F80A07FC05D0F7
:1015C0003EF4909581959F4F0895709561957F4F5A
:1015D0000895A29FB001B39FC001A39F700D811D0C
:1015E0001124911DB29F700D811D1124911D08952C
:1015F000AA1BBB1B51E107C0AA1FBB1FA617B70739
:1016000010F0A61BB70B881F991F5A95A9F7809554
:101610009095BC01CD010895DC01FC01672F71910B
:101620007723E1F7329704C07C916D9370836291C8
:0C163000AE17BF07C8F30895F894FFCF71
:10163C005F5F5F5F5F5F5F00000000000000000005
:10164C00005F5F5F5F5F5F5F0000000000000000F5
:10165C000000000000000000005F00000007000711
:10166C0000147F147F14242A7F2A12231308646227
:10167C0036495522500005030000001C2241000091
:10168C0041221C0014083E081408083E08080050AB
:10169C0030000008080808080060600000201008EE
:1016AC0004023E5149453E00427F4000426151498F
:1016BC00462141454B311814127F102745454539B9
:1016CC003C4A4949300171090503364949493606F6
:1016DC004949291E00363600000056360000081411
:1016EC002241001414141414004122140802015154
:1016FC000906324979413E7E1111117E7F494949D3
:10170C00363E414141227F4141221C7F494949419A
:10171C007F090909013E4149497A7F0808087F0081
:10172C00417F41002040413F017F081422417F400E
:10173C004040407F020C027F7F0408107F3E4141F5
:10174C00413E7F090909063E4151215E7F09192955
:10175C0046464949493101017F01013F4040403F24
:10176C001F2040201F3F4038403F6314081463077C
:10177C00087008076151494543007F41410002044C
:10178C000810200041417F00040201020440404047
:10179C004040000102040020545454787F484444D3
:1017AC00383844444420384444487F3854545418FE
:1017BC00087E0901020C5252523E7F080404780044
:1017CC00447D40002040443D007F102844000041EF
:1017DC007F40007C041804787C0804047838444466
:1017EC0044387C14141408081414187C7C08040461
:1017FC00084854545420043F4440203C4040207C32
:10180C001C2040201C3C4030403C44281028440CF8
:10181C005050503C4464544C440008364100000085
:10182C007F00000041360800100808100878464177
:10183C0046784100420044004500460042494E00B3
:10184C004F43540044454300484558003700380086
:10185C0039002F003400350036007800310032009A
:10186C0033002B003000434C52003D002D005F5FD5
:10187C005F5F5F5F5F002020202020202020202041
:08188C00202020202020000094
:00000001FF
