:100000000C942A000C9447000C9447000C94470071
:100010000C9447000C9447000C9447000C94470044
:100020000C9447000C9447000C9447000C94470034
:100030000C9447000C9447000C9447000C94470024
:100040000C9447000C9447000C9447000C94470014
:100050000C94470011241FBECFE5D8E0DEBFCDBF12
:1000600010E0A0E6B0E0ECE4F4E002C005900D92F0
:10007000A036B107D9F720E0A0E6B0E001C01D929C
:10008000A036B207E1F70E9421020C9424020C94DE
:100090000000A898A99898BB8BBBAF9AAF98A99A73
:1000A0000895A89AA99898BB8BBBAF9AAF98A99AC4
:1000B0000895CF93DF93EB010E944900CE010E9487
:1000C0005100DF91CF9108958FEF8ABB87BB81BB31
:1000D00084BB8CEF81BB82EA8FBD8AE18EBD8FEF3E
:1000E00097E497BD86BD8CED95E09BBD8ABD99BD1B
:1000F00088BD81B3806681BB979A8FEF93E20197A9
:10010000F1F700C0000097988FEF97E40197F1F79F
:1001100000C00000979AA99AAE9AAF988FEF9FE817
:100120000197F1F700C0000061E070E080E090E02E
:100130000E94590083E397E00197F1F764EA78EAB7
:1001400083E090E00E94590083E397E00197F1F784
:1001500060E070E08CE090E00E94590083E397E05B
:100160000197F1F76CE078E08DE090E00E94590093
:1001700083E397E00197F1F760E07BE28EE090E0A7
:100180000E94590083E397E00197F1F760EB70E07C
:100190008EE190E00E94590083E397E00197F1F728
:1001A0006FE37BE281E090E00E94590083E397E0F7
:1001B0000197F1F760E076E082E090E00E9459005C
:1001C00083E397E00197F1F760E070E080E190E071
:1001D0000E94590083E397E00197F1F760E770E62A
:1001E00081E190E00E94590083E397E00197F1F7E5
:1001F00060E070E085E090E00E94590083E397E0C2
:100200000197F1F760E070E086E090E00E9459000D
:1002100083E397E00197F1F76CE17FEE86E190E0F0
:100220000E94590083E397E00197F1F763E070E0E3
:1002300087E190E00E94590083E397E00197F1F78E
:1002400063E372E087E090E00E94590083E397E067
:100250000197F1F760E070E08BE090E00E945900B8
:1002600083E397E00197F1F760E070E08FE090E0C2
:100270000E94590083E397E00197F1F760E070E096
:1002800081E490E00E94590083E397E00197F1F741
:1002900060E070E082E490E00E94590083E397E020
:1002A0000197F1F760E070E088E490E00E94590067
:1002B00083E397E00197F1F76FE371E089E490E061
:1002C0000E94590083E397E00197F1F760E070E046
:1002D0008AE490E00E94590083E397E00197F1F7E8
:1002E00060E070E08BE490E00E94590083E397E0C7
:1002F0000197F1F760E07FEE84E490E00E945900FE
:1003000083E397E00197F1F760E070E085E490E027
:100310000E94590083E397E00197F1F76FE371E0E2
:1003200086E490E00E94590083E397E00197F1F79B
:1003300067E077E080E390E00E94590083E397E074
:100340000197F1F764E072E081E390E00E945900C8
:1003500083E397E00197F1F764E072E082E390E0D5
:100360000E94590083E397E00197F1F762E075E09E
:1003700083E390E00E94590083E397E00197F1F74F
:1003800067E075E084E390E00E94590083E397E022
:100390000197F1F764E072E085E390E00E94590074
:1003A00083E397E00197F1F764E072E086E390E081
:1003B0000E94590083E397E00197F1F762E075E04E
:1003C00087E390E00E94590083E397E00197F1F7FB
:1003D00062E073E08AE390E00E94590083E397E0D3
:1003E0000197F1F762E073E08BE390E00E9459001F
:1003F00083E397E00197F1F760E070E083E290E03B
:100400000E94590083E397E00197F1F760E070E004
:1004100084E290E00E94590083E397E00197F1F7AE
:1004200060E070E08FE490E00E94590060E070E0CE
:100430008EE490E00E94590082E290E00E94490020
:0C04400008950E946400FFCFF894FFCFE5
:00000001FF
